:020000040800F2
:10000000180400209D010008C9020008C102000870
:10001000C5020008E50100081908000800000000FA
:10002000000000000000000000000000A70400081D
:10003000E90100080000000045030008B5050008BC
:10004000B7010008B7010008B7010008B7010008B0
:10005000B7010008B7010008B7010008B7010008A0
:10006000B7010008B7010008B7010008B701000890
:10007000B7010008B7010008B7010008B701000880
:10008000B7010008B7010008B7010008B701000870
:10009000B7010008B7010008B7010008B701000860
:1000A000B7010008B7010008B7010008B701000850
:1000B000B7010008B7010008B7010008B701000840
:1000C000B7010008B7010008B7010008B701000830
:1000D000B70100082106000855060008910600082F
:1000E000B7010008B7010008B7010008B701000810
:1000F000B7010008B7010008B7010008B701000800
:10010000B7010008B7010008B7010008B7010008EF
:10011000B7010008B7010008B7010008B7010008DF
:10012000B7010008B7010008B7010008B7010008CF
:10013000B7010008B7010008B7010008B7010008BF
:10014000B7010008B7010008B7010008B7010008AF
:10015000B7010008B7010008B7010008B70100089F
:10016000B7010008B7010008B7010008B70100088F
:10017000B7010008B7010008B7010008B70100087F
:10018000B7010008B7010008DFF80CD000F018F83C
:1001900000480047590B0008180400200648804713
:1001A00006480047FEE7FEE7FEE7FEE7FEE7FEE75C
:1001B000FEE7FEE7FEE7FEE7B90500088901000853
:1001C000064C074D06E0E06840F0010394E80700A4
:1001D00098471034AC42F6D3FFF7DAFFA40B0008BF
:1001E000C40B000800BFFEE77047F0B50A460021C7
:1001F0000023002400BF3DE0012505FA01F3156846
:1002000005EA03049C4234D105684F000326BE4032
:10021000B543056015794E00B54006683543056065
:100220001579012D02D01579022D16D185684F0060
:100230000326BE40B543856055794E00B5408668BB
:1002400035438560456801268E40B5434560456865
:1002500096798E40B6B235434560C5684F00032697
:10026000BE40B543C560D5794E00B540C66835433C
:10027000C560491C1029BFD3F0BDF0B50023002490
:100280004D07ED0E02FA05F3CE1000F1200555F8EA
:1002900026504E07F70E0F26BE40B543CF1000F193
:1002A000200646F82750CE1000F1200555F82650BC
:1002B00045EA0304CE1000F1200545F82640F0BDC4
:1002C00000BFFEE700BFFEE77047000070B50021E9
:1002D00000230F22C4781CB3174C246804F4E06494
:1002E000C4F5E064C4F30721C1F10404E3B20A4198
:1002F00044789C40E1B28478144021430C07210EDD
:100300000E4C05786155047804F01F050124AC40BB
:1003100005786D11AD0005F1E025C5F8004109E053
:10032000047804F01F050124AC40054D06787611D1
:1003300045F8264070BD00000CED00E000E400E050
:1003400080E100E07047000029B1064A12680243CC
:10035000044B1A6004E0034A12688243014B1A609E
:10036000704700003038024029B1064A1268024343
:10037000044B1A6004E0034A12688243014B1A607E
:10038000704700004038024029B1064A1268024313
:10039000044B1A6004E0034A12688243014B1A605E
:1003A0007047000044380240F0B5002100220024CC
:1003B000022500260223324F3F6807F00C0121B1CD
:1003C000042905D0082937D105E02E4F076036E013
:1003D0002D4F076033E02A4F3F1F3F68C7F3805619
:1003E000274F3F1F3F6807F03F036EB1264FB7FB13
:1003F000F3F7DFF88CC0ACF1040CDCF800C0CCF3F0
:10040000881C07FB0CF40CE01E4FB7FBF3F7DFF87A
:1004100070C0ACF1040CDCF800C0CCF3881C07FB06
:100420000CF4174F3F1F3F68C7F301477F1C7D0047
:10043000B4FBF5F7076002E0124F076000BF00BF92
:100440000F4F3F6807F0F0010909104F7A5C076809
:10045000D74047600A4F3F6807F4E051890A0B4FC5
:100460007A5C4768D7408760054F3F6807F4604172
:10047000490B064F7A5C4768D740C760F0BD000063
:10048000083802400024F40000127A000000002026
:10049000002202E08B888354521C0B8803F0200357
:1004A000002BF7D17047704770B504460D4600BF6A
:1004B000288800F080000028FAD0214601A000F032
:1004C000B5FA70BD257300000CB5002001900090B6
:1004D0003448006840F480303249086000BF314839
:1004E000006800F4003000900198401C01900098D2
:1004F00018B90198B0F5A04FF1D12A48006800F46E
:10050000003010B10120009001E000200090009820
:10051000012846D123484030006840F080502149EE
:10052000403108602048006840F440401E4908609F
:100530001C48083000681B490831086008460068FC
:1005400040F4004008600846006840F4A05008608D
:100550001648091F0860081F006840F08070091FD6
:10056000086000BF0F48006800F000700028F9D054
:1005700040F205700E4908600A480830006820F013
:1005800003000849083108600846006840F002008E
:10059000086000BF03480830006800F00C0008281D
:1005A000F8D10CBD003802400070004008544007EC
:1005B000003C02407047000010B51548006840F448
:1005C0007000134908601348006840F001001149A9
:1005D000086000200F49083108600E4800680E4985
:1005E00008400C4908600D48091D0860081F006894
:1005F00020F48020091F0860002006490C310860A3
:10060000FFF762FF4FF0006001498039086010BDBC
:1006100088ED00E000380240FFFFF6FE10300024B5
:100620003EB500246D462021094800F059F870B10C
:1006300000BF02E000202855641C0A2CFADB0449A4
:100640002846FFF725FF02492846FFF72DFF3EBD4C
:100650000010014070B50BA5002420210B4800F0CC
:100660003FF870B100BF02E000202855641C0A2C3E
:10067000FADB06492846FFF70BFF04492846FFF737
:1006800013FF70BD66726F6D20553200004400404C
:100690003EB500246D462021094800F021F870B1D4
:1006A00000BF02E000202855641C0A2CFADB054933
:1006B0002846FFF7EDFE02492846FFF7F5FE3EBD4E
:1006C000004800400010014021B1828942F40052EC
:1006D000828104E082894DF6FF731A40828170475F
:1006E00002460020B1F5007F00D100BF13880B4007
:1006F0000BB1012000E000207047F0B50346002454
:1007000000260025002040F66A17B94200D100BF3C
:100710001846C1F3421401F01F06012707FA06F537
:10072000012C01D10C3004E0022C01D1103000E08A
:1007300014301AB107682F43076002E00768AF431F
:100740000760F0BD2DE9FF4705460E460024A1468F
:1007500000BFA046B08900B100BF2C8A24F44054E9
:10076000F08804432C82AC8941F20C608443B08849
:1007700031890843718908430443AC81AC8A24F46D
:100780004074B0890443AC826846FFF70DFE2048F0
:10079000854202D01F48854202D1DDF80C9001E06D
:1007A000DDF80890A88900F4004040B109EBC900C9
:1007B00000EB091031684900B0FBF1F707E009EBE5
:1007C000C90000EB091031688900B0FBF1F7642023
:1007D000B7FBF0F004012009642101FB1078A8891F
:1007E00000F4004040B1322000EBC800B0FBF1F053
:1007F00000F00700044308E0322000EB08106421F9
:10080000B0FBF1F000F00F0004432C81BDE8FF873E
:10081000001001400014014000BFFEE710B588B091
:10082000044601211020FFF7AFFD01210846FFF724
:100830008BFD072209212348FFF71FFD07220A210C
:100840002048FFF71AFD02208DF81C0000208DF8CB
:100850001E004FF4C060069001208DF81F0002209A
:100860008DF81D0006A91748FFF7BFFC0294002071
:10087000ADF814000C20ADF812000020ADF8100007
:10088000ADF80E00ADF80C0002A90F48FFF75AFFB3
:10089000012240F225510C48FFF72FFF25208DF84B
:1008A000040001208DF8070000208DF805008DF868
:1008B000060001A8FFF70AFD01210348FFF704FF26
:1008C00008B010BD000002400010014010B588B013
:1008D000044601214804FFF747FD01210846FFF7C0
:1008E00033FD072202212348FFF7C7FC072203211B
:1008F0002048FFF7C2FC02208DF81C0000208DF874
:100900001E000C20069001208DF81F0002208DF89B
:100910001D0006A91748FFF768FC02940020ADF8F7
:1009200014000C20ADF812000020ADF81000ADF856
:100930000E00ADF80C0002A90F48FFF703FF0122DB
:1009400040F225510C48FFF7D8FE26208DF8040010
:1009500001208DF8070000208DF805008DF80600B5
:1009600001A8FFF7B3FC01210348FFF7ADFE08B073
:1009700010BD0000000002400044004010B588B0E7
:10098000044601218804FFF7EFFC01210220FFF754
:10099000DBFC07220A212348FFF76FFC07220B210B
:1009A0002048FFF76AFC02208DF81C0000208DF81B
:1009B0001E004FF44060069001208DF81F000220B9
:1009C0008DF81D0006A91748FFF70FFC02940020C0
:1009D000ADF814000C20ADF812000020ADF81000A6
:1009E000ADF80E00ADF80C0002A90F48FFF7AAFE03
:1009F000012240F225510C48FFF77FFE27208DF899
:100A0000040001208DF8070000208DF805008DF806
:100A1000060001A8FFF75AFC01210348FFF754FE26
:100A200008B010BD00040240004800400FB4054B60
:100A300010B503A9044A029800F017F810BC5DF83D
:100A400014FB0000410B00081000002002E008C861
:100A5000121F08C1002AFAD170477047002001E038
:100A600001C1121F002AFBD170472DE9F84F9946AA
:100A7000924688460546002706E025280AD05146BA
:100A80004A4690476D1C7F1C28780028F5D13846CF
:100A9000BDE8F88F002315F8011F18462E2915D13F
:100AA00015F8011F04232A290DD06FF02F02297891
:100AB000A1F13004092C09D800EB800002EB4000C2
:100AC00008446D1CF3E758F8040B6D1C2A78002AC3
:100AD000DDD0632A07D0732A0FD0104651464A460C
:100AE00090477F1C2AE018F8042B8DF80020002185
:100AF0008DF801106E46012103E058F8046B4FF0A9
:100B0000FF315A074FF0000401D409E0641C84420D
:100B10000BDA8C42FADB325D002AF7D105E0641C67
:100B20008C42FCDB305D0028F9D1274404E016F844
:100B3000010B51464A469047641EF8D26D1CA3E74C
:100B400000BF044A128802F08002002AF9D0014B4B
:100B500098807047001001400AA44FF4E130FFF77D
:100B60005DFE4FF4E130FFF7B1FE4FF4E130FFF7E7
:100B700005FF06A0FFF75AFF09492046FFF788FC4A
:100B800000BFFEE766726F6D20553200496E6974D2
:100B9000206973207375737366756C0D0A0000000D
:100BA00000440040C40B00080000002014000000B6
:100BB0004C0A0008D80B00081400002004040000B0
:100BC0005C0A0008000000000102030401020304A3
:080BD0000607080900000000FF
:040000050800018965
:00000001FF
