:020000040800F2
:1000000078060020310200081D05000815050008CB
:100010001905000839040008750A000800000000EE
:1000200000000000000000000000000001070008C0
:100030003D040008000000009905000811080008B0
:100040004B0200084B0200084B0200084B0200085C
:100050004B0200084B0200084B0200084B0200084C
:100060004B0200084B0200084B0200084B0200083C
:100070004B0200084B0200084B0200084B0200082C
:100080004B0200084B0200084B0200084B0200081C
:100090004B0200084B0200084B0200084B0200080C
:1000A0004B0200084B0200084B0200084B020008FC
:1000B0004B0200084B0200084B0200084B020008EC
:1000C0004B0200084B0200084B0200084B020008DC
:1000D0004B0200087D080008B1080008ED08000880
:1000E0004B0200084B0200084B0200084B020008BC
:1000F0004B0200084B0200084B0200084B020008AC
:100100004B0200084B0200084B0200084B0200089B
:100110004B0200084B0200084B0200084B0200088B
:100120004B0200084B0200084B0200084B0200087B
:100130004B0200084B0200084B0200084B0200086B
:100140004B0200084B0200084B0200084B0200085B
:100150004B0200084B0200084B0200084B0200084B
:100160004B0200084B0200084B0200084B0200083B
:100170004B0200084B0200084B0200084B0200082B
:100180004B0200084B02000800F002F800F041F8B2
:100190000AA090E8000C82448344AAF10107DA45E2
:1001A00001D100F036F8AFF2090EBAE80F0013F0F3
:1001B000010F18BFFB1A43F001031847400B000062
:1001C000600B0000103A24BF78C878C1FAD85207F3
:1001D00024BF30C830C144BF04680C6070470000C1
:1001E0000023002400250026103A28BF78C1FBD840
:1001F000520728BF30C148BF0B607047732900F019
:10020000B880002070471FB500F072FD1FBD10B50B
:1002100010BD00F0E1F81146FFF7F5FF00F042FDD8
:1002200000F0FFF803B4FFF7F2FF03BC00F02CFD71
:100230000948804709480047FEE7FEE7FEE7FEE77A
:10024000FEE7FEE7FEE7FEE7FEE7FEE704480549B6
:10025000054A064B70470000150800088901000890
:100260007800002078060020780200207802002024
:10027000704700000FB4044910B503AA029800F0BB
:100280007DF810BC5DF814FB100000202DE9F04152
:100290000E460446002020622046E168884730B3BD
:1002A000252805D0D4E901219047206A401CF2E7B7
:1002B000E168204600278847050018D0A5F14100D5
:1002C000192802D820354FF40067324629462046C7
:1002D0002760FFF793FF40B1012804D0F61D26F0F8
:1002E00007060836D8E7361DD6E72846DAE7206A3B
:1002F000BDE8F08170B50C460546012A05D0287886
:10030000800600D5EA69002302E0012305E05B1CBA
:10031000934202D2E05C0028F9D1A869E618C01A1D
:10032000A861286A184428622846AFF3008004E0D8
:10033000D5E9012114F8010B9047B442F8D32846BF
:10034000AFF3008070BD704770477047704710B5BD
:10035000436913B1AFF3008001E0FFF7CBFF012049
:1003600010BD127800F124010A7000224A700122A7
:10037000EDE711684FF0FF32E9E70000074B70B579
:100380000D467B4400F011F80446284600F020F8A2
:1003900010B14FF0FF3070BD204670BD070900005E
:1003A00001694A1C02610878704700B58FB0CDE939
:1003B00001310021059105497944CDE90310114629
:1003C0006846FFF763FF0FB000BD0000E5FFFFFFC9
:1003D000007B00F080007047754600F029F8AE46BB
:1003E00005006946534620F00700854618B020B541
:1003F000FFF72CFFBDE820404FF000064FF000074C
:100400004FF000084FF0000B21F00701AC46ACE8BC
:10041000C009ACE8C009ACE8C009ACE8C0098D4629
:1004200070470446AFF300802046FFF7FBFE000054
:10043000004870471400002000BFFEE77047F0B589
:100440000A4600210023002400BF3DE0012505FAF3
:1004500001F3156805EA03049C4234D105684F0096
:100460000326BE40B543056015794E00B5400668C9
:10047000354305601579012D02D01579022D16D16D
:1004800085684F000326BE40B543856055794E0010
:10049000B540866835438560456801268E40B54382
:1004A0004560456896798E40B6B235434560C5686B
:1004B0004F000326BE40B543C560D5794E00B54018
:1004C000C6683543C560491C1029BFD3F0BDF0B5DF
:1004D000002300244D07ED0E02FA05F3CE1000F1C3
:1004E000200555F826504E07F70E0F26BE40B5439F
:1004F000CF1000F1200646F82750CE1000F120055D
:1005000055F8265045EA0304CE1000F1200545F8C1
:100510002640F0BD00BFFEE700BFFEE770470000C9
:1005200070B5002100230F22C4781CB3174C246837
:1005300004F4E064C4F5E064C4F30721C1F10404E9
:10054000E3B20A4144789C40E1B2847814402143EC
:100550000C07210E0E4C05786155047804F01F0538
:100560000124AC4005786D11AD0005F1E025C5F81A
:10057000004109E0047804F01F050124AC40054D5A
:100580000678761145F8264070BD00000CED00E0BD
:1005900000E400E080E100E07047000029B1064A75
:1005A00012680243044B1A6004E0034A1268824353
:1005B000014B1A60704700003038024029B1064AEA
:1005C00012680243044B1A6004E0034A1268824333
:1005D000014B1A60704700004038024029B1064ABA
:1005E00012680243044B1A6004E0034A1268824313
:1005F000014B1A607047000044380240F0B50021FA
:1006000000220024022500260223324F3F6807F013
:100610000C0121B1042905D0082937D105E02E4F5E
:10062000076036E02D4F076033E02A4F3F1F3F68D9
:10063000C7F38056274F3F1F3F6807F03F036EB157
:10064000264FB7FBF3F7DFF88CC0ACF1040CDCF8F5
:1006500000C0CCF3881C07FB0CF40CE01E4FB7FB6A
:10066000F3F7DFF870C0ACF1040CDCF800C0CCF399
:10067000881C07FB0CF4174F3F1F3F68C7F3014767
:100680007F1C7D00B4FBF5F7076002E0124F0760A6
:1006900000BF00BF0F4F3F6807F0F0010909104F7E
:1006A0007A5C0768D74047600A4F3F6807F4E0511B
:1006B000890A0B4F7A5C4768D7408760054F3F68CF
:1006C00007F46041490B064F7A5C4768D740C76022
:1006D000F0BD0000083802400024F40000127A0047
:1006E0000000002030B5002204E08B88DDB2134604
:1006F000521CC5540B8803F02003002BF5D130BDEC
:100700007047000070B504460D4600BF288800F011
:1007100080000028FAD0214601A0FFF7ABFD70BD94
:10072000257300000CB5002001900090344800684B
:1007300040F480303249086000BF3148006800F45E
:10074000003000900198401C0190009818B9019861
:10075000B0F5A04FF1D12A48006800F4003010B184
:100760000120009001E0002000900098012846D16F
:1007700023484030006840F08050214940310860F3
:100780002048006840F440401E4908601C4808307A
:1007900000681B49083108600846006840F40040C2
:1007A00008600846006840F4A05008601648091F19
:1007B0000860081F006840F08070091F086000BFD3
:1007C0000F48006800F000700028F9D040F2057072
:1007D0000E4908600A480830006820F00300084904
:1007E000083108600846006840F00200086000BF59
:1007F00003480830006800F00C000828F8D10CBD50
:10080000003802400070004008544007003C02409D
:100810007047000010B51548006840F47000134997
:1008200008601348006840F001001149086000208A
:100830000F49083108600E4800680E4908400C490D
:1008400008600D48091D0860081F006820F480201A
:10085000091F0860002006490C310860FFF762FF9D
:100860004FF0006001498039086010BD88ED00E05C
:1008700000380240FFFFF6FE103000243EB5002491
:100880006D462021094800F059F870B100BF02E020
:1008900000202855641C0A2CFADB04492846FFF77F
:1008A00021FF02492846FFF72DFF3EBD0010014001
:1008B00070B50BA5002420210B4800F03FF870B163
:1008C00000BF02E000202855641C0A2CFADB064910
:1008D0002846FFF707FF04492846FFF713FF70BDBE
:1008E00066726F6D20553200004400403EB5002412
:1008F0006D462021094800F021F870B100BF02E0E8
:1009000000202855641C0A2CFADB05492846FFF70D
:10091000E9FE02492846FFF7F5FE3EBD00480040CB
:100920000010014021B1828942F40052828104E02A
:1009300082894DF6FF731A4082817047024600207B
:10094000B1F5007F00D100BF13880B400BB101202F
:1009500000E000207047F0B5034600240026002583
:10096000002040F66A17B94200D100BF1846C1F313
:10097000421401F01F06012707FA06F5012C01D1E8
:100980000C3004E0022C01D1103000E014301AB118
:1009900007682F43076002E00768AF430760F0BDB8
:1009A0002DE9FF4705460E460024A14600BFA0469C
:1009B000B08900B100BF2C8A24F44054F08804436D
:1009C0002C82AC8941F20C608443B08831890843A1
:1009D000718908430443AC81AC8A24F44074B08923
:1009E0000443AC826846FFF709FE2048854202D0E6
:1009F0001F48854202D1DDF80C9001E0DDF8089037
:100A0000A88900F4004040B109EBC90000EB0910CF
:100A100031684900B0FBF1F707E009EBC90000EBD2
:100A2000091031688900B0FBF1F76420B7FBF0F0E2
:100A300004012009642101FB1078A88900F400401A
:100A400040B1322000EBC800B0FBF1F000F007002D
:100A5000044308E0322000EB08106421B0FBF1F001
:100A600000F00F0004432C81BDE8FF870010014017
:100A70000014014000BFFEE710B588B00446012114
:100A80001020FFF7ABFD01210846FFF787FD072285
:100A900009212348FFF71BFD07220A212048FFF701
:100AA00016FD02208DF81C0000208DF81E004FF46A
:100AB000C060069001208DF81F0002208DF81D00F7
:100AC00006A91748FFF7BBFC02940020ADF81400FC
:100AD0000C20ADF812000020ADF81000ADF80E00AB
:100AE000ADF80C0002A90F48FFF75AFF012240F2AF
:100AF00025510C48FFF72FFF25208DF80400012019
:100B00008DF8070000208DF805008DF8060001A87B
:100B1000FFF706FD01210348FFF704FF08B010BDF1
:100B2000000002400010014010B588B004460121C9
:100B30004804FFF743FD01210846FFF72FFD072278
:100B400002212348FFF7C3FC072203212048FFF7B7
:100B5000BEFC02208DF81C0000208DF81E000C2029
:100B6000069001208DF81F0002208DF81D0006A9B7
:100B70001748FFF764FC02940020ADF814000C2025
:100B8000ADF812000020ADF81000ADF80E00ADF881
:100B90000C0002A90F48FFF703FF012240F2255184
:100BA0000C48FFF7D8FE26208DF8040001208DF8B0
:100BB000070000208DF805008DF8060001A8FFF75A
:100BC000AFFC01210348FFF7ADFE08B010BD0000E7
:100BD000000002400044004010B588B004460121E6
:100BE0008804FFF7EBFC01210220FFF7D7FC072266
:100BF0000A212348FFF76BFC07220B212048FFF74F
:100C000066FC02208DF81C0000208DF81E004FF4B9
:100C10004060069001208DF81F0002208DF81D0015
:100C200006A91748FFF70BFC02940020ADF814004A
:100C30000C20ADF812000020ADF81000ADF80E0049
:100C4000ADF80C0002A90F48FFF7AAFE012240F2FE
:100C500025510C48FFF77FFE27208DF80400012066
:100C60008DF8070000208DF805008DF8060001A81A
:100C7000FFF756FC01210348FFF754FE08B010BDF2
:100C8000000402400048004000BF704700BF044A13
:100C9000128802F08002002AF9D0014B9880704738
:100CA000001001400AA44FF4E130FFF7E5FE4FF4D5
:100CB000E130FFF739FF4FF4E130FFF78DFF06A079
:100CC000FFF7D8FA09492046FFF70CFD00BFFEE701
:100CD00066726F6D20553200496E69742069732009
:100CE0007375737366756C0D0A0000000044004054
:100CF0004FF04070E1EE100A704700001C0D000834
:100D00000000002014000000C4010008300D00089D
:100D10001400002064060000E0010008000000004C
:100D20000102030401020304060708090000000091
:040000050800018965
:00000001FF
