:020000040800F2
:100000007006002029020008BF030008B70300089B
:10001000BB030008DB0200083309000800000000F1
:10002000000000000000000000000000AD05000816
:10003000DF0200080000000039040008BD060008C7
:10004000430200084302000843020008430200087C
:10005000430200084302000843020008430200086C
:10006000430200084302000843020008430200085C
:10007000430200084302000843020008430200084C
:10008000430200084302000843020008430200083C
:10009000430200084302000843020008430200082C
:1000A000430200084302000843020008430200081C
:1000B000430200084302000843020008430200080C
:1000C00043020008430200084302000843020008FC
:1000D00043020008290700085D0700089907000887
:1000E00043020008430200084302000843020008DC
:1000F00043020008430200084302000843020008CC
:1001000043020008430200084302000843020008BB
:1001100043020008430200084302000843020008AB
:10012000430200084302000843020008430200089B
:10013000430200084302000843020008430200088B
:10014000430200084302000843020008430200087B
:10015000430200084302000843020008430200086B
:10016000430200084302000843020008430200085B
:10017000430200084302000843020008430200084B
:10018000430200084302000800F002F800F03CF8C7
:100190000AA090E8000C82448344AAF10107DA45E2
:1001A00001D100F031F8AFF2090EBAE80F0013F0F8
:1001B000010F18BFFB1A43F001031847CC090000D8
:1001C000EC090000103A24BF78C878C1FAD8520769
:1001D00024BF30C830C144BF04680C6070470000C1
:1001E0000023002400250026103A28BF78C1FBD840
:1001F000520728BF30C148BF0B6070471FB500F0E1
:10020000BDFC1FBD10B510BD00F031F81146FFF761
:10021000F5FF00F099FC00F04FF803B4FFF7F2FF90
:1002200003BC00F053F80000094880470948004724
:10023000FEE7FEE7FEE7FEE7FEE7FEE7FEE7FEE796
:10024000FEE7FEE704480549054A064B70470000F3
:10025000C106000889010008700000207006002017
:10026000700200207002002070477047704775468A
:1002700000F028F8AE4605006946534620F0070016
:10028000854618B020B5FFF7DDFFBDE820404FF0F0
:1002900000064FF000074FF000084FF0000B21F070
:1002A0000701AC46ACE8C009ACE8C009ACE8C0093D
:1002B000ACE8C0098D4670470446AFF30080204685
:1002C000FFF7ABFF004870471000002001491820DD
:1002D000ABBEFEE726000200704700BFFEE7704796
:1002E000F0B50A4600210023002400BF3DE00125AF
:1002F00005FA01F3156805EA03049C4234D1056848
:100300004F000326BE40B543056015794E00B54049
:100310000668354305601579012D02D01579022D47
:1003200016D185684F000326BE40B54385605579D8
:100330004E00B540866835438560456801268E408D
:10034000B5434560456896798E40B6B23543456001
:10035000C5684F000326BE40B543C560D5794E0041
:10036000B540C6683543C560491C1029BFD3F0BDF0
:10037000F0B5002300244D07ED0E02FA05F3CE1070
:1003800000F1200555F826504E07F70E0F26BE4007
:10039000B543CF1000F1200646F82750CE1000F1EB
:1003A000200555F8265045EA0304CE1000F120053B
:1003B00045F82640F0BD00BFFEE700BFFEE77047EE
:1003C00070B5002100230F22C4781CB3174C246899
:1003D00004F4E064C4F5E064C4F30721C1F104044B
:1003E000E3B20A4144789C40E1B28478144021434E
:1003F0000C07210E0E4C05786155047804F01F059A
:100400000124AC4005786D11AD0005F1E025C5F87B
:10041000004109E0047804F01F050124AC40054DBB
:100420000678761145F8264070BD00000CED00E01E
:1004300000E400E080E100E07047000029B1064AD6
:1004400012680243044B1A6004E0034A12688243B4
:10045000014B1A60704700003038024029B1064A4B
:1004600012680243044B1A6004E0034A1268824394
:10047000014B1A60704700004038024029B1064A1B
:1004800012680243044B1A6004E0034A1268824374
:10049000014B1A607047000044380240F0B500215B
:1004A00000220024022500260223324F3F6807F075
:1004B0000C0121B1042905D0082937D105E02E4FC0
:1004C000076036E02D4F076033E02A4F3F1F3F683B
:1004D000C7F38056274F3F1F3F6807F03F036EB1B9
:1004E000264FB7FBF3F7DFF88CC0ACF1040CDCF857
:1004F00000C0CCF3881C07FB0CF40CE01E4FB7FBCC
:10050000F3F7DFF870C0ACF1040CDCF800C0CCF3FA
:10051000881C07FB0CF4174F3F1F3F68C7F30147C8
:100520007F1C7D00B4FBF5F7076002E0124F076007
:1005300000BF00BF0F4F3F6807F0F0010909104FDF
:100540007A5C0768D74047600A4F3F6807F4E0517C
:10055000890A0B4F7A5C4768D7408760054F3F6830
:1005600007F46041490B064F7A5C4768D740C76083
:10057000F0BD0000083802400024F40000127A00A8
:100580000000002070B504460D4600260AE0A15D7B
:10059000284600F0CAF900BF288800F08000002833
:1005A000FAD0761CA05D0028F1D170BD704770B5FF
:1005B00004460D46002604E0284600F0B1F9A05597
:1005C000761C2021284600F00FF90028F4D170BDD8
:1005D0000CB50020019000903448006840F4803051
:1005E0003249086000BF3148006800F400300090D4
:1005F0000198401C0190009818B90198B0F5A04FDF
:10060000F1D12A48006800F4003010B101200090B8
:1006100001E0002000900098012846D12348403096
:10062000006840F08050214940310860204800684F
:1006300040F440401E4908601C48083000681B49CF
:10064000083108600846006840F400400860084629
:10065000006840F4A05008601648091F0860081F91
:10066000006840F08070091F086000BF0F480068F4
:1006700000F000700028F9D040F205700E490860C3
:100680000A480830006820F0030008490831086073
:100690000846006840F00200086000BF03480830C8
:1006A000006800F00C000828F8D10CBD00380240AA
:1006B0000070004008544007003C024070470000B2
:1006C00010B51548006840F47000134908601348DD
:1006D000006840F001001149086000200F4908310E
:1006E00008600E4800680E4908400C4908600D4833
:1006F000091D0860081F006820F48020091F086099
:10070000002006490C310860FFF762FF4FF00060DF
:1007100001498039086010BD88ED00E000380240D2
:10072000FFFFF6FE103000243EB500246D46202168
:10073000094800F059F870B100BF02E000202855C8
:10074000641C0A2CFADB04492846FFF730FF0249F3
:100750002846FFF717FF3EBD0010014070B50BA5FE
:10076000002420210B4800F03FF870B100BF02E0E8
:1007700000202855641C0A2CFADB06492846FFF79E
:1007800016FF04492846FFF7FDFE70BD66726F6DC7
:1007900020553200004400403EB500246D46202123
:1007A000094800F021F870B100BF02E00020285590
:1007B000641C0A2CFADB04492846FFF7F8FE0349BB
:1007C0002846FFF7DFFE3EBD004800400010014014
:1007D00021B1828942F40052828104E082894DF67F
:1007E000FF731A408281704702460020B1F5007FF6
:1007F00000D100BF13880B400BB1012000E00020A6
:100800007047F0B50346002400260025002040F67E
:100810006A17B94200D100BF1846C1F3421401F073
:100820001F06012707FA06F5012C01D10C3004E060
:10083000022C01D1103000E014301AB107682F43A8
:10084000076002E00768AF430760F0BD2DE9FF478E
:1008500005460E460024A14600BFA046B08900B15F
:1008600000BF2C8A24F44054F08804432C82AC89C5
:1008700041F20C608443B088318908437189084390
:100880000443AC81AC8A24F44074B0890443AC8244
:100890006846FFF703FE2048854202D01F48854284
:1008A00002D1DDF80C9001E0DDF80890A88900F491
:1008B000004040B109EBC90000EB09103168490064
:1008C000B0FBF1F707E009EBC90000EB0910316854
:1008D0008900B0FBF1F76420B7FBF0F004012009B8
:1008E000642101FB1078A88900F4004040B1322057
:1008F00000EBC800B0FBF1F000F00700044308E093
:10090000322000EB08106421B0FBF1F000F00F0082
:1009100004432C81BDE8FF87001001400014014012
:1009200001468888C0F308007047C1F3080282803E
:10093000704700BFFEE7000010B588B004460121F3
:100940001020FFF79BFD01210846FFF777FD0722E6
:1009500009212348FFF70CFD07220A212048FFF751
:1009600007FD02208DF81C0000208DF81E004FF4BA
:10097000C060069001208DF81F0002208DF81D0038
:1009800006A91748FFF7ACFC02940020ADF814004C
:100990000C20ADF812000020ADF81000ADF80E00EC
:1009A000ADF80C0002A90F48FFF750FF012240F2FA
:1009B00025510C48FFF725FF25208DF80400012064
:1009C0008DF8070000208DF805008DF8060001A8BD
:1009D000FFF7F6FC01210348FFF7FAFE08B010BD4F
:1009E000000002400010014010B588B0044601210B
:1009F0004804FFF733FD01210846FFF71FFD0722DA
:100A000002212348FFF7B4FC072203212048FFF707
:100A1000AFFC02208DF81C0000208DF81E000C2079
:100A2000069001208DF81F0002208DF81D0006A9F8
:100A30001748FFF755FC02940020ADF814000C2075
:100A4000ADF812000020ADF81000ADF80E00ADF8C2
:100A50000C0002A90F48FFF7F9FE012240F22551D0
:100A60000C48FFF7CEFE26208DF8040001208DF8FB
:100A7000070000208DF805008DF8060001A8FFF79B
:100A80009FFC01210348FFF7A3FE08B010BD000042
:100A9000000002400044004010B588B00446012127
:100AA0008804FFF7DBFC01210220FFF7C7FC0722C7
:100AB0000A212348FFF75CFC07220B212048FFF79F
:100AC00057FC02208DF81C0000208DF81E004FF40A
:100AD0004060069001208DF81F0002208DF81D0057
:100AE00006A91748FFF7FCFB02940020ADF814009C
:100AF0000C20ADF812000020ADF81000ADF80E008B
:100B0000ADF80C0002A90F48FFF7A0FE012240F249
:100B100025510C48FFF775FE27208DF804000120B1
:100B20008DF8070000208DF805008DF8060001A85B
:100B3000FFF746FC01210348FFF74AFE08B010BD4D
:100B4000000402400048004009A44FF4E130FFF7E0
:100B5000F3FE4FF4E130FFF747FF4FF4E130FFF7CA
:100B60009BFF05492046FFF70DFD00BFFEE7000093
:100B700066726F6D20553200004400404FF04070A7
:100B8000E1EE100A70470000A80B000800000020EA
:100B900010000000C4010008B80B0008100000207D
:100BA00060060000E00100080000000001020304EC
:080BB000010203040607080915
:040000050800018965
:00000001FF
